{
  "contractName": "SimpleStorage",
  "abi": [
    {
      "inputs": [
        {
          "internalType": "string",
          "name": "_name",
          "type": "string"
        },
        {
          "internalType": "uint256",
          "name": "_favoriteNumber",
          "type": "uint256"
        }
      ],
      "name": "store",
      "outputs": [],
      "stateMutability": "nonpayable",
      "type": "function"
    },
    {
      "inputs": [
        {
          "internalType": "string",
          "name": "_name",
          "type": "string"
        }
      ],
      "name": "searchFavoriteNumberPerPerson",
      "outputs": [
        {
          "internalType": "uint256",
          "name": "",
          "type": "uint256"
        }
      ],
      "stateMutability": "view",
      "type": "function",
      "constant": true
    },
    {
      "inputs": [
        {
          "internalType": "uint256",
          "name": "index",
          "type": "uint256"
        }
      ],
      "name": "retrieve",
      "outputs": [
        {
          "components": [
            {
              "internalType": "string",
              "name": "name",
              "type": "string"
            },
            {
              "internalType": "uint256",
              "name": "favoriteNumber",
              "type": "uint256"
            }
          ],
          "internalType": "struct SimpleStorage.People",
          "name": "",
          "type": "tuple"
        }
      ],
      "stateMutability": "view",
      "type": "function",
      "constant": true
    }
  ],
  "bytecode": "0x608060405234801561001057600080fd5b506107af806100206000396000f3fe608060405234801561001057600080fd5b50600436106100415760003560e01c80637408a1d7146100465780638f88708b14610062578063fa64137a14610092575b600080fd5b610060600480360381019061005b91906104a5565b6100c2565b005b61007c60048036038101906100779190610501565b610158565b6040516100899190610602565b60405180910390f35b6100ac60048036038101906100a79190610624565b610230565b6040516100b9919061067c565b60405180910390f35b6000604051806040016040528084815260200183815250905060008190806001815401808255809150506001900390600052602060002090600202016000909190919091506000820151816000019080519060200190610123929190610258565b506020820151816001015550508160018460405161014191906106d3565b908152602001604051809103902081905550505050565b6101606102de565b60008281548110610174576101736106ea565b5b906000526020600020906002020160405180604001604052908160008201805461019d90610748565b80601f01602080910402602001604051908101604052809291908181526020018280546101c990610748565b80156102165780601f106101eb57610100808354040283529160200191610216565b820191906000526020600020905b8154815290600101906020018083116101f957829003601f168201915b505050505081526020016001820154815250509050919050565b600060018260405161024291906106d3565b9081526020016040518091039020549050919050565b82805461026490610748565b90600052602060002090601f01602090048101928261028657600085556102cd565b82601f1061029f57805160ff19168380011785556102cd565b828001600101855582156102cd579182015b828111156102cc5782518255916020019190600101906102b1565b5b5090506102da91906102f8565b5090565b604051806040016040528060608152602001600081525090565b5b808211156103115760008160009055506001016102f9565b5090565b6000604051905090565b600080fd5b600080fd5b600080fd5b600080fd5b6000601f19601f8301169050919050565b7f4e487b7100000000000000000000000000000000000000000000000000000000600052604160045260246000fd5b61037c82610333565b810181811067ffffffffffffffff8211171561039b5761039a610344565b5b80604052505050565b60006103ae610315565b90506103ba8282610373565b919050565b600067ffffffffffffffff8211156103da576103d9610344565b5b6103e382610333565b9050602081019050919050565b82818337600083830152505050565b600061041261040d846103bf565b6103a4565b90508281526020810184848401111561042e5761042d61032e565b5b6104398482856103f0565b509392505050565b600082601f83011261045657610455610329565b5b81356104668482602086016103ff565b91505092915050565b6000819050919050565b6104828161046f565b811461048d57600080fd5b50565b60008135905061049f81610479565b92915050565b600080604083850312156104bc576104bb61031f565b5b600083013567ffffffffffffffff8111156104da576104d9610324565b5b6104e685828601610441565b92505060206104f785828601610490565b9150509250929050565b6000602082840312156105175761051661031f565b5b600061052584828501610490565b91505092915050565b600081519050919050565b600082825260208201905092915050565b60005b8381101561056857808201518184015260208101905061054d565b83811115610577576000848401525b50505050565b60006105888261052e565b6105928185610539565b93506105a281856020860161054a565b6105ab81610333565b840191505092915050565b6105bf8161046f565b82525050565b600060408301600083015184820360008601526105e2828261057d565b91505060208301516105f760208601826105b6565b508091505092915050565b6000602082019050818103600083015261061c81846105c5565b905092915050565b60006020828403121561063a5761063961031f565b5b600082013567ffffffffffffffff81111561065857610657610324565b5b61066484828501610441565b91505092915050565b6106768161046f565b82525050565b6000602082019050610691600083018461066d565b92915050565b600081905092915050565b60006106ad8261052e565b6106b78185610697565b93506106c781856020860161054a565b80840191505092915050565b60006106df82846106a2565b915081905092915050565b7f4e487b7100000000000000000000000000000000000000000000000000000000600052603260045260246000fd5b7f4e487b7100000000000000000000000000000000000000000000000000000000600052602260045260246000fd5b6000600282049050600182168061076057607f821691505b60208210810361077357610772610719565b5b5091905056fea264697066735822122015676e84c9e89749f5f0233eaf7a6cc8d93abec6e3e7fd237561e3b862a5af5264736f6c634300080d0033",
  "immutableReferences": {},
  "source": "// SPDX-License-Identifier: MIT\r\n\r\npragma solidity ^0.8.13;\r\n\r\ncontract SimpleStorage {\r\n    struct People\r\n    {\r\n        string name;\r\n        uint256 favoriteNumber;\r\n    }\r\n\r\n    People[] people;\r\n\r\n    mapping(string => uint) peopleMapping;\r\n\r\n    function store(string memory _name, uint256 _favoriteNumber) public \r\n    {\r\n        People memory person = People({name : _name, favoriteNumber : _favoriteNumber});\r\n        people.push(person);\r\n        peopleMapping[_name] = _favoriteNumber;\r\n    }\r\n\r\n    function searchFavoriteNumberPerPerson(string memory _name) public view returns(uint256)\r\n    {\r\n        return peopleMapping[_name];\r\n    }\r\n\r\n    function retrieve(uint256 index) public view returns(People memory)\r\n    {\r\n        return people[index]; \r\n    }\r\n}",
  "sourcePath": "C:\\SourceCode\\SecondTruffleProject\\deploy-from-local-dev-environment-vanessa-oviedo\\contracts\\SimpleStorage.sol",
  "compiler": {
    "name": "solc",
    "version": "0.8.13+commit.abaa5c0e.Emscripten.clang"
  },
  "schemaVersion": "3.4.8",
  "updatedAt": "2022-07-25T21:01:42.724Z",
  "networkType": "ethereum",
  "devdoc": {
    "kind": "dev",
    "methods": {},
    "version": 1
  },
  "userdoc": {
    "kind": "user",
    "methods": {},
    "version": 1
  }
}